{
    "contractName": "QDAOGovernor",
    "abi": [
        {
            "anonymous": false,
            "inputs": [
                {
                    "indexed": false,
                    "internalType": "uint256",
                    "name": "id",
                    "type": "uint256"
                },
                {
                    "indexed": false,
                    "internalType": "address",
                    "name": "proposer",
                    "type": "address"
                },
                {
                    "indexed": false,
                    "internalType": "address[]",
                    "name": "targets",
                    "type": "address[]"
                },
                {
                    "indexed": false,
                    "internalType": "uint256[]",
                    "name": "values",
                    "type": "uint256[]"
                },
                {
                    "indexed": false,
                    "internalType": "bytes[]",
                    "name": "calldatas",
                    "type": "bytes[]"
                },
                {
                    "indexed": false,
                    "internalType": "uint256",
                    "name": "startBlock",
                    "type": "uint256"
                },
                {
                    "indexed": false,
                    "internalType": "uint256",
                    "name": "endBlock",
                    "type": "uint256"
                },
                {
                    "indexed": false,
                    "internalType": "string",
                    "name": "description",
                    "type": "string"
                }
            ],
            "name": "ProposalCreated",
            "type": "event"
        },
        {
            "inputs": [],
            "name": "_governor",
            "outputs": [
                {
                    "internalType": "address",
                    "name": "",
                    "type": "address"
                }
            ],
            "stateMutability": "view",
            "type": "function"
        },
        {
            "inputs": [],
            "name": "admin",
            "outputs": [
                {
                    "internalType": "address",
                    "name": "",
                    "type": "address"
                }
            ],
            "stateMutability": "view",
            "type": "function"
        },
        {
            "inputs": [
                {
                    "internalType": "address[]",
                    "name": "targets",
                    "type": "address[]"
                },
                {
                    "internalType": "uint256[]",
                    "name": "values",
                    "type": "uint256[]"
                },
                {
                    "internalType": "bytes[]",
                    "name": "calldatas",
                    "type": "bytes[]"
                },
                {
                    "internalType": "string",
                    "name": "description",
                    "type": "string"
                }
            ],
            "name": "createProposal",
            "outputs": [
                {
                    "internalType": "uint256",
                    "name": "",
                    "type": "uint256"
                }
            ],
            "stateMutability": "nonpayable",
            "type": "function"
        },
        {
            "inputs": [
                {
                    "internalType": "uint256",
                    "name": "proposalId",
                    "type": "uint256"
                }
            ],
            "name": "execute",
            "outputs": [],
            "stateMutability": "payable",
            "type": "function"
        },
        {
            "inputs": [],
            "name": "getQuorum",
            "outputs": [
                {
                    "internalType": "uint256",
                    "name": "",
                    "type": "uint256"
                }
            ],
            "stateMutability": "view",
            "type": "function"
        },
        {
            "inputs": [
                {
                    "internalType": "uint256",
                    "name": "proposalId",
                    "type": "uint256"
                }
            ],
            "name": "getState",
            "outputs": [
                {
                    "internalType": "enum QDAOGovernorDelegateStorageV1.ProposalState",
                    "name": "state",
                    "type": "uint8"
                }
            ],
            "stateMutability": "view",
            "type": "function"
        },
        {
            "inputs": [],
            "name": "implementation",
            "outputs": [
                {
                    "internalType": "address",
                    "name": "",
                    "type": "address"
                }
            ],
            "stateMutability": "view",
            "type": "function"
        },
        {
            "inputs": [
                {
                    "internalType": "address",
                    "name": "_timelock",
                    "type": "address"
                },
                {
                    "internalType": "address",
                    "name": "_token",
                    "type": "address"
                },
                {
                    "internalType": "uint256",
                    "name": "_votingPeriod",
                    "type": "uint256"
                }
            ],
            "name": "initialize",
            "outputs": [],
            "stateMutability": "nonpayable",
            "type": "function"
        },
        {
            "inputs": [],
            "name": "pendingAdmin",
            "outputs": [
                {
                    "internalType": "address",
                    "name": "",
                    "type": "address"
                }
            ],
            "stateMutability": "view",
            "type": "function"
        },
        {
            "inputs": [],
            "name": "proposalCount",
            "outputs": [
                {
                    "internalType": "uint256",
                    "name": "",
                    "type": "uint256"
                }
            ],
            "stateMutability": "view",
            "type": "function"
        },
        {
            "inputs": [
                {
                    "internalType": "uint256",
                    "name": "",
                    "type": "uint256"
                }
            ],
            "name": "proposals",
            "outputs": [
                {
                    "internalType": "uint256",
                    "name": "id",
                    "type": "uint256"
                },
                {
                    "internalType": "address",
                    "name": "proposer",
                    "type": "address"
                },
                {
                    "internalType": "uint256",
                    "name": "eta",
                    "type": "uint256"
                },
                {
                    "internalType": "uint256",
                    "name": "startBlock",
                    "type": "uint256"
                },
                {
                    "internalType": "uint256",
                    "name": "endBlock",
                    "type": "uint256"
                },
                {
                    "internalType": "uint256",
                    "name": "forVotes",
                    "type": "uint256"
                },
                {
                    "internalType": "uint256",
                    "name": "againstVotes",
                    "type": "uint256"
                },
                {
                    "internalType": "bool",
                    "name": "canceled",
                    "type": "bool"
                },
                {
                    "internalType": "bool",
                    "name": "executed",
                    "type": "bool"
                }
            ],
            "stateMutability": "view",
            "type": "function"
        },
        {
            "inputs": [
                {
                    "internalType": "uint256",
                    "name": "proposalId",
                    "type": "uint256"
                }
            ],
            "name": "queue",
            "outputs": [],
            "stateMutability": "nonpayable",
            "type": "function"
        },
        {
            "inputs": [],
            "name": "quorumNumerator",
            "outputs": [
                {
                    "internalType": "uint256",
                    "name": "",
                    "type": "uint256"
                }
            ],
            "stateMutability": "view",
            "type": "function"
        },
        {
            "inputs": [],
            "name": "timelock",
            "outputs": [
                {
                    "internalType": "contract QDAOTimelockInterface",
                    "name": "",
                    "type": "address"
                }
            ],
            "stateMutability": "view",
            "type": "function"
        },
        {
            "inputs": [],
            "name": "token",
            "outputs": [
                {
                    "internalType": "contract QDAOTokenV0Interface",
                    "name": "",
                    "type": "address"
                }
            ],
            "stateMutability": "view",
            "type": "function"
        },
        {
            "inputs": [
                {
                    "internalType": "uint256",
                    "name": "_newValue",
                    "type": "uint256"
                }
            ],
            "name": "updateVotingPeriod",
            "outputs": [],
            "stateMutability": "nonpayable",
            "type": "function"
        },
        {
            "inputs": [],
            "name": "votingPeriod",
            "outputs": [
                {
                    "internalType": "uint256",
                    "name": "",
                    "type": "uint256"
                }
            ],
            "stateMutability": "view",
            "type": "function"
        }
    ],
    "bytecode": "608060405234801561001057600080fd5b50611850806100206000396000f3fe6080604052600436106100fe5760003560e01c8063a7713a7011610095578063ddf0b00911610064578063ddf0b00914610360578063ef00ef4314610380578063f851a440146103a0578063fc0c546a146103c0578063fe0d94c1146103e057600080fd5b8063a7713a70146102ff578063c26c12eb14610315578063d33219b41461032a578063da35c6641461034a57600080fd5b8063280e25fa116100d1578063280e25fa1461027f57806344c9af281461029f5780635c60da1b146102cc57806395260843146102ec57600080fd5b8063013cf08b1461010357806302a251a3146101cc5780631794bb3c146101f05780632678224714610247575b600080fd5b34801561010f57600080fd5b5061017761011e366004610f6b565b600760208190526000918252604090912080546001820154600283015460068401549484015460088501546009860154600a9096015494966001600160a01b039094169592949192909160ff8082169161010090041689565b60408051998a526001600160a01b0390981660208a0152968801959095526060870193909352608086019190915260a085015260c0840152151560e08301521515610100820152610120015b60405180910390f35b3480156101d857600080fd5b506101e260035481565b6040519081526020016101c3565b3480156101fc57600080fd5b5061024561020b366004610f99565b600580546001600160a01b039485166001600160a01b03199182161782556006805494909516931692909217909255600391909155600855565b005b34801561025357600080fd5b50600154610267906001600160a01b031681565b6040516001600160a01b0390911681526020016101c3565b34801561028b57600080fd5b506101e261029a3660046111cd565b6103f3565b3480156102ab57600080fd5b506102bf6102ba366004610f6b565b610506565b6040516101c391906112ee565b3480156102d857600080fd5b50600254610267906001600160a01b031681565b3480156102f857600080fd5b5030610267565b34801561030b57600080fd5b506101e260085481565b34801561032157600080fd5b506101e261067b565b34801561033657600080fd5b50600554610267906001600160a01b031681565b34801561035657600080fd5b506101e260045481565b34801561036c57600080fd5b5061024561037b366004610f6b565b610712565b34801561038c57600080fd5b5061024561039b366004610f6b565b610962565b3480156103ac57600080fd5b50600054610267906001600160a01b031681565b3480156103cc57600080fd5b50600654610267906001600160a01b031681565b6102456103ee366004610f6b565b610a29565b60035460009043908290610408908390610bfa565b60048054919250600061041a8361132c565b909155505060045460008181526007602090815260409091209182556001820180546001600160a01b03191633179055885161045e916003840191908b0190610e0a565b50865161047490600483019060208a0190610e6f565b50855161048a9060058301906020890190610eaa565b506000600882018190556009820155600a8101805461ff0019169055600681018390556007810182905580546040517f95f03e437e6d5037418f12bef80fc7e0a5f27754c078a1d5d3f62d39bac44e50916104f29133908c908c908c908a908a908e90611425565b60405180910390a154979650505050505050565b6000816004541015801561051a5750600082115b6105615760405162461bcd60e51b8152602060048201526013602482015272125b9d985b1a59081c1c9bdc1bdcd85b081a59606a1b60448201526064015b60405180910390fd5b6000828152600760205260409020600a81015460ff16156105855750600192915050565b806007015443116105995750600092915050565b806009015481600801541115806105ba57506105b361067b565b8160080154105b156105c85750600292915050565b600a810154610100900460ff16156105e35750600692915050565b600554604080516360d143f160e11b8152905161065d926001600160a01b03169163c1a287e29160048083019260209291908290030181865afa15801561062e573d6000803e3d6000fd5b505050506040513d601f19601f8201168201806040525081019061065291906114d8565b600283015490610bfa565b421061066c5750600592915050565b50600492915050565b50919050565b60006064600854600660009054906101000a90046001600160a01b03166001600160a01b03166318160ddd6040518163ffffffff1660e01b8152600401602060405180830381865afa1580156106d5573d6000803e3d6000fd5b505050506040513d601f19601f820116820180604052508101906106f991906114d8565b61070391906114f1565b61070d9190611508565b905090565b600361071d82610506565b600681111561072e5761072e6112d8565b146107af5760405162461bcd60e51b8152602060048201526044602482018190527f476f7665726e6f72427261766f3a3a71756575653a2070726f706f73616c2063908201527f616e206f6e6c79206265207175657565642069662069742069732073756363656064820152631959195960e21b608482015260a401610558565b60008181526007602090815260408083206005548251630d48571f60e31b81529251919493610836936001600160a01b0390921692636a42b8f89260048082019392918290030181865afa15801561080b573d6000803e3d6000fd5b505050506040513d601f19601f8201168201806040525081019061082f91906114d8565b4290610bfa565b905060005b60038301548110156109585761094683600301828154811061085f5761085f61152a565b6000918252602090912001546004850180546001600160a01b03909216918490811061088d5761088d61152a565b90600052602060002001548560050184815481106108ad576108ad61152a565b9060005260206000200180546108c290611540565b80601f01602080910402602001604051908101604052809291908181526020018280546108ee90611540565b801561093b5780601f106109105761010080835404028352916020019161093b565b820191906000526020600020905b81548152906001019060200180831161091e57829003601f168201915b505050505085610c58565b806109508161132c565b91505061083b565b5060029091015550565b336001600160a01b0316306001600160a01b031663952608436040518163ffffffff1660e01b8152600401602060405180830381865afa1580156109aa573d6000803e3d6000fd5b505050506040513d601f19601f820116820180604052508101906109ce9190611574565b6001600160a01b031614610a245760405162461bcd60e51b815260206004820152601d60248201527f43616c6c6572206973206e6f74207468652044414f476f7665726e6f720000006044820152606401610558565b600355565b6004610a3482610506565b6006811115610a4557610a456112d8565b14610ac65760405162461bcd60e51b815260206004820152604560248201527f476f7665726e6f72427261766f3a3a657865637574653a2070726f706f73616c60448201527f2063616e206f6e6c7920626520657865637574656420696620697420697320716064820152641d595d595960da1b608482015260a401610558565b6000818152600760205260408120600a8101805461ff001916610100179055905b6003820154811015610bf5576005546003830180546001600160a01b03909216916306a41d09919084908110610b1f57610b1f61152a565b6000918252602090912001546004850180546001600160a01b039092169185908110610b4d57610b4d61152a565b9060005260206000200154856005018581548110610b6d57610b6d61152a565b9060005260206000200186600201546040518563ffffffff1660e01b8152600401610b9b9493929190611591565b6000604051808303816000875af1158015610bba573d6000803e3d6000fd5b505050506040513d6000823e601f3d908101601f19168201604052610be2919081019061163b565b5080610bed8161132c565b915050610ae7565b505050565b600082820183811015610c4f5760405162461bcd60e51b815260206004820152601b60248201527f536166654d6174683a206164646974696f6e206f766572666c6f7700000000006044820152606401610558565b90505b92915050565b6005546040516001600160a01b039091169063f2b0653790610c849087908790879087906020016116b2565b604051602081830303815290604052805190602001206040518263ffffffff1660e01b8152600401610cb891815260200190565b602060405180830381865afa158015610cd5573d6000803e3d6000fd5b505050506040513d601f19601f82011682018060405250810190610cf991906116ea565b15610d8a5760405162461bcd60e51b815260206004820152605560248201527f476f7665726e6f72427261766f3a3a71756575654f72526576657274496e746560448201527f726e616c3a206964656e746963616c2070726f706f73616c20616374696f6e20606482015274616c7265616479207175657565642061742065746160581b608482015260a401610558565b600554604051638e361cdf60e01b81526001600160a01b0390911690638e361cdf90610dc09087908790879087906004016116b2565b6020604051808303816000875af1158015610ddf573d6000803e3d6000fd5b505050506040513d601f19601f82011682018060405250810190610e0391906114d8565b5050505050565b828054828255906000526020600020908101928215610e5f579160200282015b82811115610e5f57825182546001600160a01b0319166001600160a01b03909116178255602090920191600190910190610e2a565b50610e6b929150610efc565b5090565b828054828255906000526020600020908101928215610e5f579160200282015b82811115610e5f578251825591602001919060010190610e8f565b828054828255906000526020600020908101928215610ef0579160200282015b82811115610ef05782518290610ee0908261175a565b5091602001919060010190610eca565b50610e6b929150610f11565b5b80821115610e6b5760008155600101610efd565b80821115610e6b576000610f258282610f2e565b50600101610f11565b508054610f3a90611540565b6000825580601f10610f4a575050565b601f016020900490600052602060002090810190610f689190610efc565b50565b600060208284031215610f7d57600080fd5b5035919050565b6001600160a01b0381168114610f6857600080fd5b600080600060608486031215610fae57600080fd5b8335610fb981610f84565b92506020840135610fc981610f84565b929592945050506040919091013590565b634e487b7160e01b600052604160045260246000fd5b604051601f8201601f1916810167ffffffffffffffff8111828210171561101957611019610fda565b604052919050565b600067ffffffffffffffff82111561103b5761103b610fda565b5060051b60200190565b600082601f83011261105657600080fd5b8135602061106b61106683611021565b610ff0565b82815260059290921b8401810191818101908684111561108a57600080fd5b8286015b848110156110a5578035835291830191830161108e565b509695505050505050565b600067ffffffffffffffff8211156110ca576110ca610fda565b50601f01601f191660200190565b60006110e6611066846110b0565b90508281528383830111156110fa57600080fd5b828260208301376000602084830101529392505050565b600082601f83011261112257600080fd5b8135602061113261106683611021565b82815260059290921b8401810191818101908684111561115157600080fd5b8286015b848110156110a557803567ffffffffffffffff8111156111755760008081fd5b8701603f810189136111875760008081fd5b6111988986830135604084016110d8565b845250918301918301611155565b600082601f8301126111b757600080fd5b6111c6838335602085016110d8565b9392505050565b600080600080608085870312156111e357600080fd5b843567ffffffffffffffff808211156111fb57600080fd5b818701915087601f83011261120f57600080fd5b8135602061121f61106683611021565b82815260059290921b8401810191818101908b84111561123e57600080fd5b948201945b8386101561126557853561125681610f84565b82529482019490820190611243565b9850508801359250508082111561127b57600080fd5b61128788838901611045565b9450604087013591508082111561129d57600080fd5b6112a988838901611111565b935060608701359150808211156112bf57600080fd5b506112cc878288016111a6565b91505092959194509250565b634e487b7160e01b600052602160045260246000fd5b602081016007831061131057634e487b7160e01b600052602160045260246000fd5b91905290565b634e487b7160e01b600052601160045260246000fd5b60006001820161133e5761133e611316565b5060010190565b600081518084526020808501945080840160005b8381101561137557815187529582019590820190600101611359565b509495945050505050565b60005b8381101561139b578181015183820152602001611383565b50506000910152565b600081518084526113bc816020860160208601611380565b601f01601f19169290920160200192915050565b600081518084526020808501808196508360051b8101915082860160005b858110156114185782840389526114068483516113a4565b988501989350908401906001016113ee565b5091979650505050505050565b8881526001600160a01b038881166020808401919091526101006040840181905289519084018190526000926101208501928b810192909190855b8181101561147e578451831686529483019493830193600101611460565b505050505082810360608401526114958189611345565b905082810360808401526114a981886113d0565b90508560a08401528460c084015282810360e08401526114c981856113a4565b9b9a5050505050505050505050565b6000602082840312156114ea57600080fd5b5051919050565b8082028115828204841417610c5257610c52611316565b60008261152557634e487b7160e01b600052601260045260246000fd5b500490565b634e487b7160e01b600052603260045260246000fd5b600181811c9082168061155457607f821691505b60208210810361067557634e487b7160e01b600052602260045260246000fd5b60006020828403121561158657600080fd5b8151610c4f81610f84565b60018060a01b038516815260006020858184015260806040840152600085546115b981611540565b80608087015260a06001808416600081146115db57600181146115f557611623565b60ff1985168984015283151560051b890183019550611623565b8a6000528660002060005b8581101561161b5781548b8201860152908301908801611600565b8a0184019650505b50505050506060939093019390935250949350505050565b60006020828403121561164d57600080fd5b815167ffffffffffffffff81111561166457600080fd5b8201601f8101841361167557600080fd5b8051611683611066826110b0565b81815285602083850101111561169857600080fd5b6116a9826020830160208601611380565b95945050505050565b60018060a01b03851681528360208201526080604082015260006116d960808301856113a4565b905082606083015295945050505050565b6000602082840312156116fc57600080fd5b81518015158114610c4f57600080fd5b601f821115610bf557600081815260208120601f850160051c810160208610156117335750805b601f850160051c820191505b818110156117525782815560010161173f565b505050505050565b815167ffffffffffffffff81111561177457611774610fda565b611788816117828454611540565b8461170c565b602080601f8311600181146117bd57600084156117a55750858301515b600019600386901b1c1916600185901b178555611752565b600085815260208120601f198616915b828110156117ec578886015182559484019460019091019084016117cd565b508582101561180a5787850151600019600388901b60f8161c191681555b5050505050600190811b0190555056fea2646970667358221220b1ef456c6ac4041ef37253b852c5e3af87d0a1a0ac1c318cbdda927a77c95e8d64736f6c63430008110033",
    "sourcePath": "c:/Users/User/Desktop/Diploma/Backend-QDAO/QDAO.Contracts/Contracts/QDAOGovernor.sol",
    "compiler": {
        "name": "solc",
        "version": "0.8.17+commit.8df45f5f"
    },
    "functionHashes": {
        "_governor()": "95260843",
        "admin()": "f851a440",
        "createProposal(address[],uint256[],bytes[],string)": "280e25fa",
        "execute(uint256)": "fe0d94c1",
        "getQuorum()": "c26c12eb",
        "getState(uint256)": "44c9af28",
        "implementation()": "5c60da1b",
        "initialize(address,address,uint256)": "1794bb3c",
        "pendingAdmin()": "26782247",
        "proposalCount()": "da35c664",
        "proposals(uint256)": "013cf08b",
        "queue(uint256)": "ddf0b009",
        "quorumNumerator()": "a7713a70",
        "timelock()": "d33219b4",
        "token()": "fc0c546a",
        "updateVotingPeriod(uint256)": "ef00ef43",
        "votingPeriod()": "02a251a3"
    },
    "gasEstimates": {
        "creation": {
            "codeDepositCost": "1244800",
            "executionCost": "1295",
            "totalCost": "1246095"
        },
        "external": {
            "_governor()": "301",
            "admin()": "2403",
            "createProposal(address[],uint256[],bytes[],string)": "infinite",
            "execute(uint256)": "infinite",
            "getQuorum()": "infinite",
            "getState(uint256)": "infinite",
            "implementation()": "2404",
            "initialize(address,address,uint256)": "infinite",
            "pendingAdmin()": "2427",
            "proposalCount()": "2384",
            "proposals(uint256)": "17495",
            "queue(uint256)": "infinite",
            "quorumNumerator()": "2318",
            "timelock()": "2404",
            "token()": "2425",
            "updateVotingPeriod(uint256)": "infinite",
            "votingPeriod()": "2341"
        },
        "internal": {
            "getChainIdInternal()": "infinite",
            "getVotes(address)": "infinite",
            "queueOrRevertInternal(address,uint256,bytes memory,uint256)": "infinite",
            "vote(uint256,bool)": "infinite"
        }
    }
}