{
    "contractName": "QDAOGovernorDelegateStorageV1",
    "abi": [
        {
            "inputs": [],
            "name": "admin",
            "outputs": [
                {
                    "internalType": "address",
                    "name": "",
                    "type": "address"
                }
            ],
            "stateMutability": "view",
            "type": "function"
        },
        {
            "inputs": [],
            "name": "implementation",
            "outputs": [
                {
                    "internalType": "address",
                    "name": "",
                    "type": "address"
                }
            ],
            "stateMutability": "view",
            "type": "function"
        },
        {
            "inputs": [],
            "name": "pendingAdmin",
            "outputs": [
                {
                    "internalType": "address",
                    "name": "",
                    "type": "address"
                }
            ],
            "stateMutability": "view",
            "type": "function"
        },
        {
            "inputs": [],
            "name": "proposalCount",
            "outputs": [
                {
                    "internalType": "uint256",
                    "name": "",
                    "type": "uint256"
                }
            ],
            "stateMutability": "view",
            "type": "function"
        },
        {
            "inputs": [
                {
                    "internalType": "uint256",
                    "name": "",
                    "type": "uint256"
                }
            ],
            "name": "proposals",
            "outputs": [
                {
                    "internalType": "uint256",
                    "name": "id",
                    "type": "uint256"
                },
                {
                    "internalType": "address",
                    "name": "proposer",
                    "type": "address"
                },
                {
                    "internalType": "uint256",
                    "name": "eta",
                    "type": "uint256"
                },
                {
                    "internalType": "uint256",
                    "name": "startBlock",
                    "type": "uint256"
                },
                {
                    "internalType": "uint256",
                    "name": "endBlock",
                    "type": "uint256"
                },
                {
                    "internalType": "uint256",
                    "name": "forVotes",
                    "type": "uint256"
                },
                {
                    "internalType": "uint256",
                    "name": "againstVotes",
                    "type": "uint256"
                },
                {
                    "internalType": "bool",
                    "name": "canceled",
                    "type": "bool"
                },
                {
                    "internalType": "bool",
                    "name": "executed",
                    "type": "bool"
                }
            ],
            "stateMutability": "view",
            "type": "function"
        },
        {
            "inputs": [],
            "name": "quorumNumerator",
            "outputs": [
                {
                    "internalType": "uint256",
                    "name": "",
                    "type": "uint256"
                }
            ],
            "stateMutability": "view",
            "type": "function"
        },
        {
            "inputs": [],
            "name": "timelock",
            "outputs": [
                {
                    "internalType": "contract QDAOTimelockInterface",
                    "name": "",
                    "type": "address"
                }
            ],
            "stateMutability": "view",
            "type": "function"
        },
        {
            "inputs": [],
            "name": "token",
            "outputs": [
                {
                    "internalType": "contract QDAOTokenV0Interface",
                    "name": "",
                    "type": "address"
                }
            ],
            "stateMutability": "view",
            "type": "function"
        },
        {
            "inputs": [],
            "name": "votingPeriod",
            "outputs": [
                {
                    "internalType": "uint256",
                    "name": "",
                    "type": "uint256"
                }
            ],
            "stateMutability": "view",
            "type": "function"
        }
    ],
    "bytecode": "608060405234801561001057600080fd5b50610243806100206000396000f3fe608060405234801561001057600080fd5b50600436106100935760003560e01c8063a7713a7011610066578063a7713a70146101a9578063d33219b4146101b2578063da35c664146101c5578063f851a440146101ce578063fc0c546a146101e157600080fd5b8063013cf08b1461009857806302a251a314610154578063267822471461016b5780635c60da1b14610196575b600080fd5b6100ff6100a63660046101f4565b600760208190526000918252604090912080546001820154600283015460068401549484015460088501546009860154600a9096015494966001600160a01b039094169592949192909160ff8082169161010090041689565b60408051998a526001600160a01b0390981660208a0152968801959095526060870193909352608086019190915260a085015260c0840152151560e08301521515610100820152610120015b60405180910390f35b61015d60035481565b60405190815260200161014b565b60015461017e906001600160a01b031681565b6040516001600160a01b03909116815260200161014b565b60025461017e906001600160a01b031681565b61015d60085481565b60055461017e906001600160a01b031681565b61015d60045481565b60005461017e906001600160a01b031681565b60065461017e906001600160a01b031681565b60006020828403121561020657600080fd5b503591905056fea26469706673582212209ce42629c8b71bcd16622913c9bfb7210184e1aae4f8dbbaa406399e99fa637064736f6c63430008110033",
    "sourcePath": "c:/Users/User/Desktop/Diploma/Backend-QDAO/QDAO.Contracts/Contracts/QDAOGovernorInterfaces.sol",
    "compiler": {
        "name": "solc",
        "version": "0.8.17+commit.8df45f5f"
    },
    "functionHashes": {
        "admin()": "f851a440",
        "implementation()": "5c60da1b",
        "pendingAdmin()": "26782247",
        "proposalCount()": "da35c664",
        "proposals(uint256)": "013cf08b",
        "quorumNumerator()": "a7713a70",
        "timelock()": "d33219b4",
        "token()": "fc0c546a",
        "votingPeriod()": "02a251a3"
    },
    "gasEstimates": {
        "creation": {
            "codeDepositCost": "115800",
            "executionCost": "165",
            "totalCost": "115965"
        },
        "external": {
            "admin()": "2403",
            "implementation()": "2404",
            "pendingAdmin()": "2382",
            "proposalCount()": "2339",
            "proposals(uint256)": "17472",
            "quorumNumerator()": "2295",
            "timelock()": "2359",
            "token()": "2425",
            "votingPeriod()": "2318"
        }
    }
}