{
    "contractName": "QDAOGovernorDelegator",
    "abi": [
        {
            "inputs": [
                {
                    "internalType": "address",
                    "name": "_timelock",
                    "type": "address"
                },
                {
                    "internalType": "address",
                    "name": "_token",
                    "type": "address"
                },
                {
                    "internalType": "address",
                    "name": "_admin",
                    "type": "address"
                },
                {
                    "internalType": "address",
                    "name": "_implementation",
                    "type": "address"
                },
                {
                    "internalType": "uint256",
                    "name": "_votingPeriod",
                    "type": "uint256"
                }
            ],
            "stateMutability": "nonpayable",
            "type": "constructor"
        },
        {
            "anonymous": false,
            "inputs": [
                {
                    "indexed": false,
                    "internalType": "uint256",
                    "name": "id",
                    "type": "uint256"
                },
                {
                    "indexed": false,
                    "internalType": "address",
                    "name": "proposer",
                    "type": "address"
                },
                {
                    "indexed": false,
                    "internalType": "address[]",
                    "name": "targets",
                    "type": "address[]"
                },
                {
                    "indexed": false,
                    "internalType": "uint256[]",
                    "name": "values",
                    "type": "uint256[]"
                },
                {
                    "indexed": false,
                    "internalType": "bytes[]",
                    "name": "calldatas",
                    "type": "bytes[]"
                },
                {
                    "indexed": false,
                    "internalType": "uint256",
                    "name": "startBlock",
                    "type": "uint256"
                },
                {
                    "indexed": false,
                    "internalType": "uint256",
                    "name": "endBlock",
                    "type": "uint256"
                },
                {
                    "indexed": false,
                    "internalType": "string",
                    "name": "description",
                    "type": "string"
                }
            ],
            "name": "ProposalCreated",
            "type": "event"
        },
        {
            "stateMutability": "payable",
            "type": "fallback"
        },
        {
            "inputs": [
                {
                    "internalType": "address",
                    "name": "implementation_",
                    "type": "address"
                }
            ],
            "name": "_setImplementation",
            "outputs": [],
            "stateMutability": "nonpayable",
            "type": "function"
        },
        {
            "inputs": [],
            "name": "admin",
            "outputs": [
                {
                    "internalType": "address",
                    "name": "",
                    "type": "address"
                }
            ],
            "stateMutability": "view",
            "type": "function"
        },
        {
            "inputs": [],
            "name": "implementation",
            "outputs": [
                {
                    "internalType": "address",
                    "name": "",
                    "type": "address"
                }
            ],
            "stateMutability": "view",
            "type": "function"
        },
        {
            "inputs": [],
            "name": "pendingAdmin",
            "outputs": [
                {
                    "internalType": "address",
                    "name": "",
                    "type": "address"
                }
            ],
            "stateMutability": "view",
            "type": "function"
        }
    ],
    "bytecode": "608060405234801561001057600080fd5b5060405161062838038061062883398101604081905261002f91610271565b600080546001600160a01b031916331790556040516001600160a01b038681166024830152851660448201526064810182905261009e90839060840160408051601f198184030181529190526020810180516001600160e01b039081166305e52ecf60e21b179091526100d116565b6100a782610144565b5050600080546001600160a01b0319166001600160a01b0392909216919091179055506102fe9050565b600080836001600160a01b0316836040516100ec91906102cf565b600060405180830381855af49150503d8060008114610127576040519150601f19603f3d011682016040523d82523d6000602084013e61012c565b606091505b5090925090508161013e573d60208201fd5b50505050565b6000546001600160a01b031633146101b75760405162461bcd60e51b8152602060048201526035602482015260008051602061060883398151915260448201527f6d656e746174696f6e3a2061646d696e206f6e6c79000000000000000000000060648201526084015b60405180910390fd5b6001600160a01b0381166102335760405162461bcd60e51b8152602060048201526049602482015260008051602061060883398151915260448201527f6d656e746174696f6e3a20696e76616c696420696d706c656d656e746174696f6064820152686e206164647265737360b81b608482015260a4016101ae565b600280546001600160a01b0319166001600160a01b0392909216919091179055565b80516001600160a01b038116811461026c57600080fd5b919050565b600080600080600060a0868803121561028957600080fd5b61029286610255565b94506102a060208701610255565b93506102ae60408701610255565b92506102bc60608701610255565b9150608086015190509295509295909350565b6000825160005b818110156102f057602081860181015185830152016102d6565b506000920191825250919050565b6102fb8061030d6000396000f3fe60806040526004361061003f5760003560e01c806326782247146100bc5780635c60da1b146100f8578063bb913f4114610118578063f851a44014610138575b6002546040516000916001600160a01b03169061005f9083903690610285565b600060405180830381855af49150503d806000811461009a576040519150601f19603f3d011682016040523d82523d6000602084013e61009f565b606091505b505090506040513d6000823e8180156100b6573d82f35b3d82fd5b005b3480156100c857600080fd5b506001546100dc906001600160a01b031681565b6040516001600160a01b03909116815260200160405180910390f35b34801561010457600080fd5b506002546100dc906001600160a01b031681565b34801561012457600080fd5b506100ba610133366004610295565b610158565b34801561014457600080fd5b506000546100dc906001600160a01b031681565b6000546001600160a01b031633146101d55760405162461bcd60e51b815260206004820152603560248201527f5144414f476f7665726e6f7244656c656761746f723a3a5f736574496d706c656044820152746d656e746174696f6e3a2061646d696e206f6e6c7960581b60648201526084015b60405180910390fd5b6001600160a01b0381166102635760405162461bcd60e51b815260206004820152604960248201527f5144414f476f7665726e6f7244656c656761746f723a3a5f736574496d706c6560448201527f6d656e746174696f6e3a20696e76616c696420696d706c656d656e746174696f6064820152686e206164647265737360b81b608482015260a4016101cc565b600280546001600160a01b0319166001600160a01b0392909216919091179055565b8183823760009101908152919050565b6000602082840312156102a757600080fd5b81356001600160a01b03811681146102be57600080fd5b939250505056fea2646970667358221220526d1d81c79484535e90fc88c28294e4971003a84aa7ede1ee13661b07fdde4664736f6c634300081100335144414f476f7665726e6f7244656c656761746f723a3a5f736574496d706c65",
    "sourcePath": "c:/Users/User/Desktop/Diploma/Backend-QDAO/QDAO.Contracts/Contracts/QDAOGovernorDelegator.sol",
    "compiler": {
        "name": "solc",
        "version": "0.8.17+commit.8df45f5f"
    },
    "functionHashes": {
        "_setImplementation(address)": "bb913f41",
        "admin()": "f851a440",
        "implementation()": "5c60da1b",
        "pendingAdmin()": "26782247"
    },
    "gasEstimates": {
        "creation": {
            "codeDepositCost": "152600",
            "executionCost": "infinite",
            "totalCost": "infinite"
        },
        "external": {
            "": "infinite",
            "_setImplementation(address)": "26733",
            "admin()": "2369",
            "implementation()": "2325",
            "pendingAdmin()": "2303"
        },
        "internal": {
            "delegateTo(address,bytes memory)": "infinite"
        }
    }
}