{
    "contractName": "QDAOTimelock",
    "abi": [
        {
            "inputs": [
                {
                    "internalType": "address",
                    "name": "admin_",
                    "type": "address"
                },
                {
                    "internalType": "uint256",
                    "name": "delay_",
                    "type": "uint256"
                }
            ],
            "stateMutability": "nonpayable",
            "type": "constructor"
        },
        {
            "stateMutability": "payable",
            "type": "fallback"
        },
        {
            "inputs": [],
            "name": "GRACE_PERIOD",
            "outputs": [
                {
                    "internalType": "uint256",
                    "name": "",
                    "type": "uint256"
                }
            ],
            "stateMutability": "view",
            "type": "function"
        },
        {
            "inputs": [],
            "name": "MAXIMUM_DELAY",
            "outputs": [
                {
                    "internalType": "uint256",
                    "name": "",
                    "type": "uint256"
                }
            ],
            "stateMutability": "view",
            "type": "function"
        },
        {
            "inputs": [],
            "name": "MINIMUM_DELAY",
            "outputs": [
                {
                    "internalType": "uint256",
                    "name": "",
                    "type": "uint256"
                }
            ],
            "stateMutability": "view",
            "type": "function"
        },
        {
            "inputs": [],
            "name": "acceptAdmin",
            "outputs": [],
            "stateMutability": "nonpayable",
            "type": "function"
        },
        {
            "inputs": [],
            "name": "admin",
            "outputs": [
                {
                    "internalType": "address",
                    "name": "",
                    "type": "address"
                }
            ],
            "stateMutability": "view",
            "type": "function"
        },
        {
            "inputs": [
                {
                    "internalType": "address",
                    "name": "target",
                    "type": "address"
                },
                {
                    "internalType": "uint256",
                    "name": "value",
                    "type": "uint256"
                },
                {
                    "internalType": "bytes",
                    "name": "data",
                    "type": "bytes"
                },
                {
                    "internalType": "uint256",
                    "name": "eta",
                    "type": "uint256"
                }
            ],
            "name": "cancelTransaction",
            "outputs": [],
            "stateMutability": "nonpayable",
            "type": "function"
        },
        {
            "inputs": [],
            "name": "delay",
            "outputs": [
                {
                    "internalType": "uint256",
                    "name": "",
                    "type": "uint256"
                }
            ],
            "stateMutability": "view",
            "type": "function"
        },
        {
            "inputs": [
                {
                    "internalType": "address",
                    "name": "target",
                    "type": "address"
                },
                {
                    "internalType": "uint256",
                    "name": "value",
                    "type": "uint256"
                },
                {
                    "internalType": "bytes",
                    "name": "data",
                    "type": "bytes"
                },
                {
                    "internalType": "uint256",
                    "name": "eta",
                    "type": "uint256"
                }
            ],
            "name": "executeTransaction",
            "outputs": [
                {
                    "internalType": "bytes",
                    "name": "",
                    "type": "bytes"
                }
            ],
            "stateMutability": "payable",
            "type": "function"
        },
        {
            "inputs": [],
            "name": "pendingAdmin",
            "outputs": [
                {
                    "internalType": "address",
                    "name": "",
                    "type": "address"
                }
            ],
            "stateMutability": "view",
            "type": "function"
        },
        {
            "inputs": [
                {
                    "internalType": "address",
                    "name": "target",
                    "type": "address"
                },
                {
                    "internalType": "uint256",
                    "name": "value",
                    "type": "uint256"
                },
                {
                    "internalType": "bytes",
                    "name": "data",
                    "type": "bytes"
                },
                {
                    "internalType": "uint256",
                    "name": "eta",
                    "type": "uint256"
                }
            ],
            "name": "queueTransaction",
            "outputs": [
                {
                    "internalType": "bytes32",
                    "name": "",
                    "type": "bytes32"
                }
            ],
            "stateMutability": "nonpayable",
            "type": "function"
        },
        {
            "inputs": [
                {
                    "internalType": "bytes32",
                    "name": "",
                    "type": "bytes32"
                }
            ],
            "name": "queuedTransactions",
            "outputs": [
                {
                    "internalType": "bool",
                    "name": "",
                    "type": "bool"
                }
            ],
            "stateMutability": "view",
            "type": "function"
        },
        {
            "inputs": [
                {
                    "internalType": "address",
                    "name": "pendingAdmin_",
                    "type": "address"
                }
            ],
            "name": "setPendingAdmin",
            "outputs": [],
            "stateMutability": "nonpayable",
            "type": "function"
        }
    ],
    "bytecode": "608060405234801561001057600080fd5b50604051610eb0380380610eb083398101604081905261002f9161014b565b6202a3008110156100a95760405162461bcd60e51b81526020600482015260456024820152600080516020610e9083398151915260448201527f746f723a2044656c6179206d75737420657863656564206d696e696d756d206460648201526432b630bc9760d91b608482015260a4015b60405180910390fd5b62278d008111156101225760405162461bcd60e51b81526020600482015260496024820152600080516020610e9083398151915260448201527f746f723a2044656c6179206d757374206e6f7420657863656564206d6178696d6064820152683ab6903232b630bc9760b91b608482015260a4016100a0565b600080546001600160a01b0319166001600160a01b039390931692909217909155600255610185565b6000806040838503121561015e57600080fd5b82516001600160a01b038116811461017557600080fd5b6020939093015192949293505050565b610cfc806101946000396000f3fe6080604052600436106100a45760003560e01c80637d645fab116100615780637d645fab146101805780638e361cdf14610197578063b1b43ae5146101b7578063c1a287e2146101ce578063f2b06537146101e5578063f851a4401461022557005b806306a41d09146100a65780630e18b681146100cf57806326782247146100e45780634dd18bf51461011c5780635b26b1081461013c5780636a42b8f81461015c575b005b6100b96100b4366004610a8a565b610245565b6040516100c69190610baf565b60405180910390f35b3480156100db57600080fd5b506100a46105c1565b3480156100f057600080fd5b50600154610104906001600160a01b031681565b6040516001600160a01b0390911681526020016100c6565b34801561012857600080fd5b506100a4610137366004610bc2565b610670565b34801561014857600080fd5b506100a4610157366004610a8a565b61078d565b34801561016857600080fd5b5061017260025481565b6040519081526020016100c6565b34801561018c57600080fd5b5061017262278d0081565b3480156101a357600080fd5b506101726101b2366004610a8a565b61086b565b3480156101c357600080fd5b506101726202a30081565b3480156101da57600080fd5b506101726212750081565b3480156101f157600080fd5b50610215610200366004610bdf565b60036020526000908152604090205460ff1681565b60405190151581526020016100c6565b34801561023157600080fd5b50600054610104906001600160a01b031681565b6060336001600160a01b0316306001600160a01b031663f851a4406040518163ffffffff1660e01b8152600401602060405180830381865afa15801561028f573d6000803e3d6000fd5b505050506040513d601f19601f820116820180604052508101906102b39190610bf8565b6001600160a01b0316146102e25760405162461bcd60e51b81526004016102d990610c15565b60405180910390fd5b6000858585856040516020016102fb9493929190610c72565b60408051601f1981840301815291815281516020928301206000818152600390935291205490915060ff166103985760405162461bcd60e51b815260206004820152603d60248201527f54696d656c6f636b3a3a657865637574655472616e73616374696f6e3a20547260448201527f616e73616374696f6e206861736e2774206265656e207175657565642e00000060648201526084016102d9565b8242101561042a5760405162461bcd60e51b815260206004820152605360248201527f5144414f54696d656c6f636b436f6e74726f6c6c65723a3a657865637574655460448201527f72616e73616374696f6e3a205472616e73616374696f6e206861736e277420736064820152723ab93830b9b9b2b2103a34b6b2903637b1b59760691b608482015260a4016102d9565b6104378362127500610a00565b4211156104b65760405162461bcd60e51b815260206004820152604160248201527f5144414f54696d656c6f636b436f6e74726f6c6c65723a3a657865637574655460448201527f72616e73616374696f6e3a205472616e73616374696f6e206973207374616c656064820152601760f91b608482015260a4016102d9565b600081815260036020526040808220805460ff191690555181906001600160a01b0389169088906104e8908990610caa565b60006040518083038185875af1925050503d8060008114610525576040519150601f19603f3d011682016040523d82523d6000602084013e61052a565b606091505b5091509150816105b65760405162461bcd60e51b815260206004820152604b60248201527f5144414f54696d656c6f636b436f6e74726f6c6c65723a3a657865637574655460448201527f72616e73616374696f6e3a205472616e73616374696f6e20657865637574696f60648201526a37103932bb32b93a32b21760a91b608482015260a4016102d9565b979650505050505050565b6001546001600160a01b031633146106505760405162461bcd60e51b815260206004820152604660248201527f5144414f54696d656c6f636b436f6e74726f6c6c65723a3a616363657074416460448201527f6d696e3a2043616c6c206d75737420636f6d652066726f6d2070656e64696e6760648201526520b236b4b71760d11b608482015260a4016102d9565b600080546001600160a01b03199081163317909155600180549091169055565b3033146106e7576040805162461bcd60e51b81526020600482015260248101919091527f5144414f54696d656c6f636b436f6e74726f6c6c65723a3a6f6e6c7954696d6560448201527f6c6f636b3a2043616c6c6572206973206e6f74207468652054696d656c6f636b60648201526084016102d9565b33301461076b5760405162461bcd60e51b815260206004820152604660248201527f5144414f54696d656c6f636b436f6e74726f6c6c65723a3a73657450656e646960448201527f6e6741646d696e3a2043616c6c206d75737420636f6d652066726f6d2054696d60648201526532b637b1b59760d11b608482015260a4016102d9565b600180546001600160a01b0319166001600160a01b0392909216919091179055565b336001600160a01b0316306001600160a01b031663f851a4406040518163ffffffff1660e01b8152600401602060405180830381865afa1580156107d5573d6000803e3d6000fd5b505050506040513d601f19601f820116820180604052508101906107f99190610bf8565b6001600160a01b03161461081f5760405162461bcd60e51b81526004016102d990610c15565b6000848484846040516020016108389493929190610c72565b60408051601f198184030181529181528151602092830120600090815260039092529020805460ff191690555050505050565b6000336001600160a01b0316306001600160a01b031663f851a4406040518163ffffffff1660e01b8152600401602060405180830381865afa1580156108b5573d6000803e3d6000fd5b505050506040513d601f19601f820116820180604052508101906108d99190610bf8565b6001600160a01b0316146108ff5760405162461bcd60e51b81526004016102d990610c15565b61091260025461090c4290565b90610a00565b8210156109ad5760405162461bcd60e51b815260206004820152605760248201527f5144414f54696d656c6f636b436f6e74726f6c6c65723a3a717565756554726160448201527f6e73616374696f6e3a20457374696d6174656420657865637574696f6e20626c60648201527f6f636b206d75737420736174697366792064656c61792e000000000000000000608482015260a4016102d9565b6000858585856040516020016109c69493929190610c72565b60408051601f198184030181529181528151602092830120600081815260039093529120805460ff19166001179055915050949350505050565b600082820183811015610a555760405162461bcd60e51b815260206004820152601b60248201527f536166654d6174683a206164646974696f6e206f766572666c6f77000000000060448201526064016102d9565b9392505050565b6001600160a01b0381168114610a7157600080fd5b50565b634e487b7160e01b600052604160045260246000fd5b60008060008060808587031215610aa057600080fd5b8435610aab81610a5c565b935060208501359250604085013567ffffffffffffffff80821115610acf57600080fd5b818701915087601f830112610ae357600080fd5b813581811115610af557610af5610a74565b604051601f8201601f19908116603f01168101908382118183101715610b1d57610b1d610a74565b816040528281528a6020848701011115610b3657600080fd5b826020860160208301376000928101602001929092525095989497509495606001359450505050565b60005b83811015610b7a578181015183820152602001610b62565b50506000910152565b60008151808452610b9b816020860160208601610b5f565b601f01601f19169290920160200192915050565b602081526000610a556020830184610b83565b600060208284031215610bd457600080fd5b8135610a5581610a5c565b600060208284031215610bf157600080fd5b5035919050565b600060208284031215610c0a57600080fd5b8151610a5581610a5c565b6020808252603a908201527f5144414f54696d656c6f636b436f6e74726f6c6c65723a3a6f6e6c7941646d6960408201527f6e3a2043616c6c6572206973206e6f74207468652061646d696e000000000000606082015260800190565b60018060a01b0385168152836020820152608060408201526000610c996080830185610b83565b905082606083015295945050505050565b60008251610cbc818460208701610b5f565b919091019291505056fea264697066735822122039ae268b641f6c6bb4891fa65c00d0bcda8097115613e95f16465fd75ba7f65764736f6c634300081100335144414f54696d656c6f636b436f6e74726f6c6c65723a3a636f6e7374727563",
    "sourcePath": "c:/Users/User/Desktop/Diploma/Backend-QDAO/QDAO.Contracts/Contracts/QDAOTimelock.sol",
    "compiler": {
        "name": "solc",
        "version": "0.8.17+commit.8df45f5f"
    },
    "functionHashes": {
        "GRACE_PERIOD()": "c1a287e2",
        "MAXIMUM_DELAY()": "7d645fab",
        "MINIMUM_DELAY()": "b1b43ae5",
        "acceptAdmin()": "0e18b681",
        "admin()": "f851a440",
        "cancelTransaction(address,uint256,bytes,uint256)": "5b26b108",
        "delay()": "6a42b8f8",
        "executeTransaction(address,uint256,bytes,uint256)": "06a41d09",
        "pendingAdmin()": "26782247",
        "queueTransaction(address,uint256,bytes,uint256)": "8e361cdf",
        "queuedTransactions(bytes32)": "f2b06537",
        "setPendingAdmin(address)": "4dd18bf5"
    },
    "gasEstimates": {
        "creation": {
            "codeDepositCost": "664800",
            "executionCost": "infinite",
            "totalCost": "infinite"
        },
        "external": {
            "": "207",
            "GRACE_PERIOD()": "261",
            "MAXIMUM_DELAY()": "195",
            "MINIMUM_DELAY()": "239",
            "acceptAdmin()": "50769",
            "admin()": "2447",
            "cancelTransaction(address,uint256,bytes,uint256)": "infinite",
            "delay()": "2406",
            "executeTransaction(address,uint256,bytes,uint256)": "infinite",
            "pendingAdmin()": "2382",
            "queueTransaction(address,uint256,bytes,uint256)": "infinite",
            "queuedTransactions(bytes32)": "2538",
            "setPendingAdmin(address)": "24674"
        },
        "internal": {
            "getBlockTimestamp()": "infinite"
        }
    }
}