{
    "contractName": "DAOGovernor",
    "abi": [
        {
            "inputs": [
                {
                    "internalType": "address",
                    "name": "tokenAddress",
                    "type": "address"
                }
            ],
            "stateMutability": "nonpayable",
            "type": "constructor"
        },
        {
            "anonymous": false,
            "inputs": [
                {
                    "indexed": false,
                    "internalType": "uint256",
                    "name": "proposalId",
                    "type": "uint256"
                },
                {
                    "indexed": false,
                    "internalType": "address",
                    "name": "proposer",
                    "type": "address"
                },
                {
                    "indexed": false,
                    "internalType": "address[]",
                    "name": "targets",
                    "type": "address[]"
                },
                {
                    "indexed": false,
                    "internalType": "uint256[]",
                    "name": "values",
                    "type": "uint256[]"
                },
                {
                    "indexed": false,
                    "internalType": "bytes[]",
                    "name": "calldatas",
                    "type": "bytes[]"
                },
                {
                    "indexed": false,
                    "internalType": "uint256",
                    "name": "startBlock",
                    "type": "uint256"
                },
                {
                    "indexed": false,
                    "internalType": "uint256",
                    "name": "endBlock",
                    "type": "uint256"
                },
                {
                    "indexed": false,
                    "internalType": "string",
                    "name": "description",
                    "type": "string"
                }
            ],
            "name": "ProposalCreated",
            "type": "event"
        },
        {
            "anonymous": false,
            "inputs": [
                {
                    "indexed": false,
                    "internalType": "uint256",
                    "name": "id",
                    "type": "uint256"
                }
            ],
            "name": "ProposalExecuted",
            "type": "event"
        },
        {
            "anonymous": false,
            "inputs": [
                {
                    "indexed": false,
                    "internalType": "address",
                    "name": "voter",
                    "type": "address"
                },
                {
                    "indexed": false,
                    "internalType": "uint256",
                    "name": "proposalId",
                    "type": "uint256"
                },
                {
                    "indexed": false,
                    "internalType": "bool",
                    "name": "support",
                    "type": "bool"
                },
                {
                    "indexed": false,
                    "internalType": "uint256",
                    "name": "votes",
                    "type": "uint256"
                }
            ],
            "name": "VoteCast",
            "type": "event"
        },
        {
            "inputs": [],
            "name": "_governor",
            "outputs": [
                {
                    "internalType": "address",
                    "name": "",
                    "type": "address"
                }
            ],
            "stateMutability": "view",
            "type": "function"
        },
        {
            "inputs": [],
            "name": "_proposalCount",
            "outputs": [
                {
                    "internalType": "uint256",
                    "name": "",
                    "type": "uint256"
                }
            ],
            "stateMutability": "view",
            "type": "function"
        },
        {
            "inputs": [
                {
                    "internalType": "uint256",
                    "name": "",
                    "type": "uint256"
                }
            ],
            "name": "_proposals",
            "outputs": [
                {
                    "internalType": "uint256",
                    "name": "id",
                    "type": "uint256"
                },
                {
                    "internalType": "address",
                    "name": "proposer",
                    "type": "address"
                },
                {
                    "internalType": "string",
                    "name": "description",
                    "type": "string"
                },
                {
                    "internalType": "uint256",
                    "name": "startBlock",
                    "type": "uint256"
                },
                {
                    "internalType": "uint256",
                    "name": "endBlock",
                    "type": "uint256"
                },
                {
                    "internalType": "uint256",
                    "name": "forVotes",
                    "type": "uint256"
                },
                {
                    "internalType": "uint256",
                    "name": "againstVotes",
                    "type": "uint256"
                },
                {
                    "internalType": "bool",
                    "name": "canceled",
                    "type": "bool"
                },
                {
                    "internalType": "bool",
                    "name": "executed",
                    "type": "bool"
                }
            ],
            "stateMutability": "view",
            "type": "function"
        },
        {
            "inputs": [
                {
                    "internalType": "address[]",
                    "name": "targets",
                    "type": "address[]"
                },
                {
                    "internalType": "uint256[]",
                    "name": "values",
                    "type": "uint256[]"
                },
                {
                    "internalType": "bytes[]",
                    "name": "calldatas",
                    "type": "bytes[]"
                },
                {
                    "internalType": "string",
                    "name": "description",
                    "type": "string"
                }
            ],
            "name": "createProposal",
            "outputs": [
                {
                    "internalType": "uint256",
                    "name": "createdProposalId",
                    "type": "uint256"
                }
            ],
            "stateMutability": "nonpayable",
            "type": "function"
        },
        {
            "inputs": [],
            "name": "daoToken",
            "outputs": [
                {
                    "internalType": "contract IDaoToken",
                    "name": "",
                    "type": "address"
                }
            ],
            "stateMutability": "view",
            "type": "function"
        },
        {
            "inputs": [
                {
                    "internalType": "uint256",
                    "name": "proposalId",
                    "type": "uint256"
                }
            ],
            "name": "execute",
            "outputs": [],
            "stateMutability": "payable",
            "type": "function"
        },
        {
            "inputs": [
                {
                    "internalType": "uint256",
                    "name": "proposalId",
                    "type": "uint256"
                }
            ],
            "name": "getProposalState",
            "outputs": [
                {
                    "internalType": "enum DAOGovernor.ProposalState",
                    "name": "state",
                    "type": "uint8"
                }
            ],
            "stateMutability": "view",
            "type": "function"
        },
        {
            "inputs": [],
            "name": "getQuorum",
            "outputs": [
                {
                    "internalType": "uint256",
                    "name": "",
                    "type": "uint256"
                }
            ],
            "stateMutability": "view",
            "type": "function"
        },
        {
            "inputs": [],
            "name": "getVotingPeriod",
            "outputs": [
                {
                    "internalType": "uint256",
                    "name": "",
                    "type": "uint256"
                }
            ],
            "stateMutability": "view",
            "type": "function"
        },
        {
            "inputs": [
                {
                    "internalType": "uint256",
                    "name": "_newValue",
                    "type": "uint256"
                }
            ],
            "name": "updateQuorumNumerator",
            "outputs": [],
            "stateMutability": "nonpayable",
            "type": "function"
        },
        {
            "inputs": [
                {
                    "internalType": "uint256",
                    "name": "_newValue",
                    "type": "uint256"
                }
            ],
            "name": "updateVotingPeriod",
            "outputs": [],
            "stateMutability": "nonpayable",
            "type": "function"
        },
        {
            "inputs": [
                {
                    "internalType": "uint256",
                    "name": "proposalId",
                    "type": "uint256"
                },
                {
                    "internalType": "bool",
                    "name": "support",
                    "type": "bool"
                }
            ],
            "name": "vote",
            "outputs": [
                {
                    "internalType": "uint256",
                    "name": "voteWeight",
                    "type": "uint256"
                }
            ],
            "stateMutability": "nonpayable",
            "type": "function"
        }
    ],
    "bytecode": "608060405234801561001057600080fd5b5060405161172a38038061172a83398101604081905261002f9161005e565b600480546001600160a01b0319166001600160a01b03929092169190911790556005600055603260015561008e565b60006020828403121561007057600080fd5b81516001600160a01b038116811461008757600080fd5b9392505050565b61168d8061009d6000396000f3fe6080604052600436106100a75760003560e01c80639080936f116100645780639080936f1461019d57806395260843146101ca578063c26c12eb146101dd578063c9d27afe146101f2578063ef00ef4314610212578063fe0d94c11461023257600080fd5b806306f3f9e6146100ac5780630a494840146100ce578063280e25fa1461010c5780633ecc6a431461013a5780634914b0301461014f5780636f2904cc14610187575b600080fd5b3480156100b857600080fd5b506100cc6100c7366004610e54565b610245565b005b3480156100da57600080fd5b506100ee6100e9366004610e54565b61036e565b60405161010399989796959493929190610eb3565b60405180910390f35b34801561011857600080fd5b5061012c610127366004611116565b61044e565b604051908152602001610103565b34801561014657600080fd5b5060005461012c565b34801561015b57600080fd5b5060045461016f906001600160a01b031681565b6040516001600160a01b039091168152602001610103565b34801561019357600080fd5b5061012c60035481565b3480156101a957600080fd5b506101bd6101b8366004610e54565b6106aa565b6040516101039190611237565b3480156101d657600080fd5b503061016f565b3480156101e957600080fd5b5061012c61077b565b3480156101fe57600080fd5b5061012c61020d36600461125f565b610807565b34801561021e57600080fd5b506100cc61022d366004610e54565b6109fd565b6100cc610240366004610e54565b610ac4565b336001600160a01b0316306001600160a01b031663952608436040518163ffffffff1660e01b8152600401602060405180830381865afa15801561028d573d6000803e3d6000fd5b505050506040513d601f19601f820116820180604052508101906102b19190611294565b6001600160a01b03161461030c5760405162461bcd60e51b815260206004820152601d60248201527f43616c6c6572206973206e6f74207468652044414f476f7665726e6f7200000060448201526064015b60405180910390fd5b60008111801561031d575060648111155b6103695760405162461bcd60e51b815260206004820152601860248201527f496e76616c69642071756f72756d206e756d657261746f7200000000000000006044820152606401610303565b600155565b60026020526000908152604090208054600182015460058301805492936001600160a01b03909216926103a0906112b1565b80601f01602080910402602001604051908101604052809291908181526020018280546103cc906112b1565b80156104195780601f106103ee57610100808354040283529160200191610419565b820191906000526020600020905b8154815290600101906020018083116103fc57829003601f168201915b5050506006840154600785015460088601546009870154600a9097015495969295919450925060ff8082169161010090041689565b60008061045a33610c7f565b116104b25760405162461bcd60e51b815260206004820152602260248201527f50726f706f736572206d757374206861766520736f6d652064616f20746f6b656044820152616e7360f01b6064820152608401610303565b83518551146104fd5760405162461bcd60e51b8152602060048201526017602482015276092dcecc2d8d2c840e0e4dee0dee6c2d840d8cadccee8d604b1b6044820152606401610303565b82518551146105485760405162461bcd60e51b8152602060048201526017602482015276092dcecc2d8d2c840e0e4dee0dee6c2d840d8cadccee8d604b1b6044820152606401610303565b600085511161058d5760405162461bcd60e51b815260206004820152601160248201527050726f706f73616c20697320656d70747960781b6044820152606401610303565b6003805490600061059d836112fb565b909155505060035460008181526002602052604081208154909143916105c39083611314565b8484556001840180546001600160a01b0319163317905589519091506105f290600285019060208c0190610cf3565b50875161060890600385019060208b0190610d58565b50865161061e90600485019060208a0190610d93565b506005830161062d8782611376565b506000600884018190556009840155600a8301805461ff0019169055600683018290556007830181905582546040517f95f03e437e6d5037418f12bef80fc7e0a5f27754c078a1d5d3f62d39bac44e50916106959133908d908d908d90899089908f906114c6565b60405180910390a15050549695505050505050565b600081600354101580156106be5750600082115b6107005760405162461bcd60e51b8152602060048201526013602482015272125b9d985b1a59081c1c9bdc1bdcd85b081a59606a1b6044820152606401610303565b6000828152600260205260409020600781015443116107225750600192915050565b80600901548160080154111580610743575061073c61077b565b8160080154105b156107515750600292915050565b600a810154610100900460ff161561076c5750600492915050565b50600392915050565b50919050565b60015460048054604080516318160ddd60e01b8152905160009460649490936001600160a01b0316926318160ddd92818301926020928290030181865afa1580156107ca573d6000803e3d6000fd5b505050506040513d601f19601f820116820180604052508101906107ee9190611579565b6107f89190611592565b61080291906115a9565b905090565b600082815260026020526040812033906001610822866106aa565b600481111561083357610833611221565b146108805760405162461bcd60e51b815260206004820152601d60248201527f50726f706f73616c207374617465206d757374206265206163746976650000006044820152606401610303565b6001600160a01b0382166000908152600b820160205260409020805460ff16156108e25760405162461bcd60e51b8152602060048201526013602482015272159bdd195c88185b1c9958591e481d9bdd1959606a1b6044820152606401610303565b60006108ed84610c7f565b90506000811161093f5760405162461bcd60e51b815260206004820152601760248201527f566f74657220686173206e6f2064616f20746f6b656e730000000000000000006044820152606401610303565b851561096457808360080160008282546109599190611314565b9091555061097e9050565b808360090160008282546109789190611314565b90915550505b8154861515610100810261ffff1990921691909117600190811784558301829055604080516001600160a01b0387168152602081018a905290810191909152606081018290527f877856338e13f63d0c36822ff0ef736b80934cd90574a3a5bc9262c39d217c469060800160405180910390a193505050505b92915050565b336001600160a01b0316306001600160a01b031663952608436040518163ffffffff1660e01b8152600401602060405180830381865afa158015610a45573d6000803e3d6000fd5b505050506040513d601f19601f82011682018060405250810190610a699190611294565b6001600160a01b031614610abf5760405162461bcd60e51b815260206004820152601d60248201527f43616c6c6572206973206e6f74207468652044414f476f7665726e6f720000006044820152606401610303565b600055565b60008181526002602052604090206003610add836106aa565b6004811115610aee57610aee611221565b14610b495760405162461bcd60e51b815260206004820152602560248201527f4f6e6c79207175657565642070726f706f73616c732063616e2062652065786560448201526418dd5d195960da1b6064820152608401610303565b60005b6002820154811015610c2f57600080836002018381548110610b7057610b706115cb565b6000918252602090912001546003850180546001600160a01b039092169185908110610b9e57610b9e6115cb565b9060005260206000200154856004018581548110610bbe57610bbe6115cb565b90600052602060002001604051610bd591906115e1565b60006040518083038185875af1925050503d8060008114610c12576040519150601f19603f3d011682016040523d82523d6000602084013e610c17565b606091505b5091509150505080610c28906112fb565b9050610b4c565b50600a8101805461ff0019166101001790556040517f712ae1383f79ac853f8d882153778e0260ef8f03b504e2866e0593e04d2b291f90610c739084815260200190565b60405180910390a15050565b6004805460405163b4b5ea5760e01b81526001600160a01b03848116938201939093526000929091169063b4b5ea5790602401602060405180830381865afa158015610ccf573d6000803e3d6000fd5b505050506040513d601f19601f820116820180604052508101906109f79190611579565b828054828255906000526020600020908101928215610d48579160200282015b82811115610d4857825182546001600160a01b0319166001600160a01b03909116178255602090920191600190910190610d13565b50610d54929150610de5565b5090565b828054828255906000526020600020908101928215610d48579160200282015b82811115610d48578251825591602001919060010190610d78565b828054828255906000526020600020908101928215610dd9579160200282015b82811115610dd95782518290610dc99082611376565b5091602001919060010190610db3565b50610d54929150610dfa565b5b80821115610d545760008155600101610de6565b80821115610d54576000610e0e8282610e17565b50600101610dfa565b508054610e23906112b1565b6000825580601f10610e33575050565b601f016020900490600052602060002090810190610e519190610de5565b50565b600060208284031215610e6657600080fd5b5035919050565b6000815180845260005b81811015610e9357602081850181015186830182015201610e77565b506000602082860101526020601f19601f83011685010191505092915050565b8981526001600160a01b038916602082015261012060408201819052600090610ede8382018b610e6d565b60608401999099525050608081019590955260a085019390935260c0840191909152151560e08301521515610100909101529392505050565b634e487b7160e01b600052604160045260246000fd5b604051601f8201601f1916810167ffffffffffffffff81118282101715610f5657610f56610f17565b604052919050565b600067ffffffffffffffff821115610f7857610f78610f17565b5060051b60200190565b6001600160a01b0381168114610e5157600080fd5b600082601f830112610fa857600080fd5b81356020610fbd610fb883610f5e565b610f2d565b82815260059290921b84018101918181019086841115610fdc57600080fd5b8286015b84811015610ff75780358352918301918301610fe0565b509695505050505050565b600067ffffffffffffffff83111561101c5761101c610f17565b61102f601f8401601f1916602001610f2d565b905082815283838301111561104357600080fd5b828260208301376000602084830101529392505050565b600082601f83011261106b57600080fd5b8135602061107b610fb883610f5e565b82815260059290921b8401810191818101908684111561109a57600080fd5b8286015b84811015610ff757803567ffffffffffffffff8111156110be5760008081fd5b8701603f810189136110d05760008081fd5b6110e1898683013560408401611002565b84525091830191830161109e565b600082601f83011261110057600080fd5b61110f83833560208501611002565b9392505050565b6000806000806080858703121561112c57600080fd5b843567ffffffffffffffff8082111561114457600080fd5b818701915087601f83011261115857600080fd5b81356020611168610fb883610f5e565b82815260059290921b8401810191818101908b84111561118757600080fd5b948201945b838610156111ae57853561119f81610f82565b8252948201949082019061118c565b985050880135925050808211156111c457600080fd5b6111d088838901610f97565b945060408701359150808211156111e657600080fd5b6111f28883890161105a565b9350606087013591508082111561120857600080fd5b50611215878288016110ef565b91505092959194509250565b634e487b7160e01b600052602160045260246000fd5b602081016005831061125957634e487b7160e01b600052602160045260246000fd5b91905290565b6000806040838503121561127257600080fd5b823591506020830135801515811461128957600080fd5b809150509250929050565b6000602082840312156112a657600080fd5b815161110f81610f82565b600181811c908216806112c557607f821691505b60208210810361077557634e487b7160e01b600052602260045260246000fd5b634e487b7160e01b600052601160045260246000fd5b60006001820161130d5761130d6112e5565b5060010190565b808201808211156109f7576109f76112e5565b601f82111561137157600081815260208120601f850160051c8101602086101561134e5750805b601f850160051c820191505b8181101561136d5782815560010161135a565b5050505b505050565b815167ffffffffffffffff81111561139057611390610f17565b6113a48161139e84546112b1565b84611327565b602080601f8311600181146113d957600084156113c15750858301515b600019600386901b1c1916600185901b17855561136d565b600085815260208120601f198616915b82811015611408578886015182559484019460019091019084016113e9565b50858210156114265787850151600019600388901b60f8161c191681555b5050505050600190811b01905550565b600081518084526020808501945080840160005b838110156114665781518752958201959082019060010161144a565b509495945050505050565b600081518084526020808501808196508360051b8101915082860160005b858110156114b95782840389526114a7848351610e6d565b9885019893509084019060010161148f565b5091979650505050505050565b8881526001600160a01b038881166020808401919091526101006040840181905289519084018190526000926101208501928b810192909190855b8181101561151f578451831686529483019493830193600101611501565b505050505082810360608401526115368189611436565b9050828103608084015261154a8188611471565b90508560a08401528460c084015282810360e084015261156a8185610e6d565b9b9a5050505050505050505050565b60006020828403121561158b57600080fd5b5051919050565b80820281158282048414176109f7576109f76112e5565b6000826115c657634e487b7160e01b600052601260045260246000fd5b500490565b634e487b7160e01b600052603260045260246000fd5b60008083546115ef816112b1565b60018281168015611607576001811461161c5761164b565b60ff198416875282151583028701945061164b565b8760005260208060002060005b858110156116425781548a820152908401908201611629565b50505082870194505b5092969550505050505056fea264697066735822122012bb809d2eca1d9491dccff74d345ff38011b418f0764d1366df15da76256fe464736f6c63430008110033",
    "sourcePath": "c:/Users/User/Desktop/Diploma/Backend-QDAO/DaoContracts/DaoGovenor.sol",
    "compiler": {
        "name": "solc",
        "version": "0.8.17+commit.8df45f5f"
    },
    "functionHashes": {
        "_governor()": "95260843",
        "_proposalCount()": "6f2904cc",
        "_proposals(uint256)": "0a494840",
        "createProposal(address[],uint256[],bytes[],string)": "280e25fa",
        "daoToken()": "4914b030",
        "execute(uint256)": "fe0d94c1",
        "getProposalState(uint256)": "9080936f",
        "getQuorum()": "c26c12eb",
        "getVotingPeriod()": "3ecc6a43",
        "updateQuorumNumerator(uint256)": "06f3f9e6",
        "updateVotingPeriod(uint256)": "ef00ef43",
        "vote(uint256,bool)": "c9d27afe"
    },
    "gasEstimates": {
        "creation": {
            "codeDepositCost": "1154600",
            "executionCost": "infinite",
            "totalCost": "infinite"
        },
        "external": {
            "_governor()": "234",
            "_proposalCount()": "2406",
            "_proposals(uint256)": "infinite",
            "createProposal(address[],uint256[],bytes[],string)": "infinite",
            "daoToken()": "2426",
            "execute(uint256)": "infinite",
            "getProposalState(uint256)": "infinite",
            "getQuorum()": "infinite",
            "getVotingPeriod()": "2359",
            "updateQuorumNumerator(uint256)": "infinite",
            "updateVotingPeriod(uint256)": "infinite",
            "vote(uint256,bool)": "infinite"
        },
        "internal": {
            "getVotes(address)": "infinite"
        }
    }
}